:100000000A128A11A32900308A000408840A820790
:10001000003444345334313438344234323430349C
:1000200020347334773431343D3472346434793469
:10003000003443347934743472346F346E34203481
:10004000543465346334683400343A3444346534A9
:1000500067347234653465342034433400344434B6
:0E0060005334313438344234323430340034C6
:1002AE00F00070088312031388000800F101031494
:1002BE00F10D00300A128A1155220A128A11080015
:1002CE00C030F5007508F10000300A128A1155226F
:1002DE000A128A110800F000701876297A29831202
:1002EE00031386167D298312031386120800F0006D
:1002FE007018822986298312031306168929831200
:10030E00031306120800F6007608F5007508F100D2
:10031E0001300A128A1155220A128A110800F600BB
:10032E0076088038F5007508F10000300A128A113F
:10033E0055220A128A110800C501C601C701C8015B
:10034E00C901CA01CB01CC01CD01CE0183010A1234
:10035E008A110A2EBA290730F3007D30F200F20B13
:10036E00B629F30BB6290130F0020030031CF1035D
:10037E00F102FF307106031DC629FF307006031D02
:10038E00C929CA29B229CB290800831203132A08C6
:10039E00F0002B08F100F2018E30FC007C08F30017
:1003AE000310003003180130F4000A128A11FB23E7
:1003BE000A128A11700883120313AA007108AB0087
:1003CE007208AC00EA29080001300A128A11722163
:1003DE000A128A116230F6006530F500F50BF52928
:1003EE00F60BF529FA293830F5007508F1000030C2
:1003FE000A128A1155220A128A110630F500750862
:10040E00F10000300A128A1155220A128A110C309C
:10041E00F5007508F10000300A128A1155220A12F1
:10042E008A110A128A115D210A128A110800831696
:10043E00031306108312031306100430F1001C3050
:10044E00F000F00B282AF10B282A64008316031300
:10045E0006146330F000F00B322A352A8312031390
:10046E0006183A2A3B2A482A0430F1001C30F000C4
:10047E00F00B3F2AF10B3F2A64000030542A542A15
:10048E00542A0430F1001C30F000F00B4C2AF10B12
:10049E004C2A64000130542A542A0800F4007408CF
:1004AE000A128A117E210A128A1171080A128A1101
:1004BE0057210A128A1101300A128A1172210A1268
:1004CE008A110730F3007D30F200F20B6C2AF30B29
:1004DE006C2A00300A128A1172210A128A110D300A
:1004EE00F300FB30F200F20B7A2AF30B7A2A7F2A02
:1004FE0000300A128A117E210A128A1100300A1265
:10050E008A1157210A128A110800F800BF2A7808AA
:10051E0084000A128A1103200A128A110A3A031958
:10052E00992A9A2AA72A780884000A128A11032087
:10053E000A128A110D3A031DA52AA62AAD2AA72A48
:10054E000A128A1167210A128A11BA2A78088400BF
:10055E000A128A1103200A128A110A128A118A219A
:10056E000A128A11BA2A0130F7007708F807BF2A53
:10057E00780884000A128A1103200A128A110038A0
:10058E00031DCA2ACB2A8E2ACC2A080071087004B1
:10059E000319D22AD32A092BF5010314F50DE32AE8
:1005AE0001300310F00DF10DFF3E031DD82A01306E
:1005BE00F4007408F507E32AF11FE62AE72AD72A82
:1005CE00E92AE92A71087302031DEF2A70087202E4
:1005DE00031CF22AF32AFA2A7008F2027108031C8D
:1005EE00F303F302FA2A01300310F10CF00CFF3E74
:1005FE00031DFB2A0130F502031D062B072BE92AEA
:10060E00092B092B7308F101F1077208F001F007AD
:10061E00102B08000310003003180130F20083166F
:10062E00031306140310003003180130F3000830D2
:10063E007302031C232B242B262B572B572B83168D
:10064E00031306108312031306100330F000F00B91
:10065E002E2B83160313061483120313061C382B3A
:10066E00392B472B0130F000730A3F2B0310F00D8E
:10067E00FF3E031D3D2B7008F1007108F204472B5D
:10068E006330F000F00B492B4C2B0130F00070085A
:10069E00F30708307302031C552B562B262B572BB2
:1006AE007208592B08000030F5000030F600710872
:1006BE0070040319632B642BA22BF7010314F70D9F
:1006CE00742B01300310F00DF10DFF3E031D692B4D
:1006DE000130F4007408F707742BF11F772B782B79
:1006EE00682B7A2B7A2B01300310F50DF60DFF3E99
:1006FE00031D7B2B71087302031D872B700872027A
:10070E00031C8A2B8B2B932B7008F2027108031C8F
:10071E00F303F3027514932B01300310F10CF00C5C
:10072E00FF3E031D942B0130F702031D9F2BA02BC0
:10073E007A2BA22BA22B7608F101F1077508F00196
:10074E00F007A92B0800F1007108F0007008F20004
:10075E008316031306140310003003180130F30040
:10076E0008307302031CBC2BBD2BBF2BFA2BFA2BAC
:10077E000130F000730AC52B0310F00DFF3E031D70
:10078E00C32B700872050319CD2BCE2BE02B8316CD
:10079E0003130610831203130610D52BD62B6400F9
:1007AE008316031306146330F000F00BDC2BDF2BE3
:1007BE00EF2B8316031306108312031306106330F8
:1007CE00F000F00BE82BEB2B831603130614EF2B24
:1007DE000130F0007008F30708307302031CF82B89
:1007EE00F92BBF2BFA2B08007308031DFF2B072CC8
:1007FE00720871047004031D052C062C1D2C072C89
:10080E000030F0000030F1000030F200752C752C35
:10081E001D2C0130F5007508F30701300310F20CA2
:10082E00F10CF00CFF3E031D152C1D2CFE30720535
:10083E00031D222C232C102C3B2C3B2C0130F500BD
:10084E007508F3070130F007003003180130F10787
:10085E00003003180130F20701300310F20CF10CD6
:10086E00F00CFF3E031D342CFF307205031D402C8F
:10087E00412C252C4E2C4E2C0130F302013003104E
:10088E00F00DF10DF20DFF3E031D462C4E2CF11F07
:10089E00512C522C432C7318552C562C5C2CFF309B
:1008AE00F0057F30F105FF30F2050310F30C7308ED
:1008BE00F500F601F70110300310F50DF60DF70DEA
:1008CE00FF3E031D632C7508F0047608F1047708CB
:1008DE00F2047408031D742C752CF21708007808A6
:1008EE0083120313A0007908A1007A08A200031056
:1008FE00210D220DA3002308A900A908031D882C91
:10090E00892C932C0030FB000030FA000030F900E7
:10091E000030F8001B2D1B2D7808A0007908A100CF
:10092E007A08A20017300310A20CA10CA00CFF3EF7
:10093E00031D9A2C2008A3002308A400F917FF30EA
:10094E00F805FF30F9050030FA057808A50079089A
:10095E00A6007A08A700A8018E30A902A91FB82CFC
:10096E00B92CDE2C2908803A8F3E0318BF2CC02CE0
:10097E00CB2C0030FB000030FA000030F9000030C4
:10098E00F8001B2D1B2DCB2C01300310A80CA70C2F
:10099E00A60CA50CFF3E031DCC2C0130A000200898
:1009AE00A907031DDB2CDC2CCB2C022D022D1830BD
:1009BE002902031CE32CE42CFB2C0030FB0000303E
:1009CE00FA000030F9000030F8001B2D1B2DFB2C17
:1009DE000130A0000310A50DA60DA70DA80DA00BAC
:1009EE00F12C0130A902FB2CA908031DFF2C002DB0
:1009FE00EF2C022D022D2408031D062D122DA50904
:100A0E00A609A709A809A50A0319A60A0319A70A80
:100A1E000319A80A122D2808FB002708FA00260839
:100A2E00F9002508F8001B2D0800831203132D086A
:100A3E00B3002E08B4002F08B5000310340D350D89
:100A4E00B6003608B700B708031D2E2D2F2D372DF3
:100A5E000030AD000030AE000030AF00092E092E80
:100A6E003008B3003108B4003208B5000310340D5D
:100A7E00350DB6003608BC00BC08031D472D482DA9
:100A8E00502D0030AD000030AE000030AF00092E0A
:100A9E00092E3C087B3EB3003308B7072D08B30080
:100AAE002E08B4002F08B50010300310B50CB40C8E
:100ABE00B30CFF3E031D5C2D3308B6003608BC0098
:100ACE003008B3003108B4003208B50010300310FE
:100ADE00B50CB40CB30CFF3E031D6E2D3308B600DF
:100AEE003608BC068030B3003308BC05AE17B1170C
:100AFE00FF30B005FF30B1050030B2050030B80050
:100B0E000030B9000030BA000730B3003308BB0024
:100B1E00902D2D1C932D942DA52D3008B80731083E
:100B2E0003110318310A03199D2DB9073208031159
:100B3E000318320A0319A42DBA07A52D013003108C
:100B4E00AF0CAE0CAD0CFF3E031DA62D01300310F5
:100B5E00B00DB10DB20DFF3E031DAE2D0130BB0227
:100B6E00031DBA2DBB2D902DBC2D0930B3003308BB
:100B7E00BB00C12D2D1CC42DC52DD62D3008B80798
:100B8E00310803110318310A0319CE2DB9073208A3
:100B9E0003110318320A0319D52DBA07D62D0130C9
:100BAE000310AF0CAE0CAD0CFF3E031DD72D013064
:100BBE000310BA0CB90CB80CFF3E031DDF2D01302B
:100BCE00BB02031DEB2DEC2DC12DED2D3808F000D1
:100BDE003908F1003A08F2003708B3003308F30081
:100BEE003C08B4003408F4000A128A11FB230A12DE
:100BFE008A11700883120313AD007108AE007208DB
:100C0E00AF00092E0800003083120313C30000301A
:100C1E00C4008501860187018801890183160313AB
:100C2E0085010E3086008701880189010A128A111A
:100C3E00EB210A128A1111300A128A118C220A1221
:100C4E008A11C0300A128A1196210A128A110130B5
:100C5E000A128A118C220A128A11E830F00003302F
:100C6E00F1000A128A11B1210A128A110A128A118E
:100C7E005D210A128A1127300A128A118C220A1259
:100C8E008A11C6300A128A1196210A128A111D3053
:100C9E000A128A118C220A128A11552E0A128A11F0
:100CAE001E220A128A110038031D5E2E5F2E552E4B
:100CBE00CC300A128A11AA230A128A1144300A125F
:100CCE008A11AA230A128A11EE30F0000230F100C6
:100CDE000A128A11B1210A128A110A128A111E22CF
:100CEE000A128A11CC300A128A11AA230A128A1108
:100CFE00BE300A128A11AA230A128A110A128A1106
:100D0E0011230A128A1183120313BD00BE013D087E
:100D1E00BF003E08C0000A128A1111230A128A115E
:100D2E0083120313BD00BE013D08C1003E08C20080
:100D3E004208BE004108BD000830FF000310BD0D83
:100D4E00BE0DFF0BA52E3F083D07C300400803183C
:100D5E00400A3E07C4004408AB01AB074308AA0192
:100D6E00AA070A128A11CC210A128A1183120313BE
:100D7E002A08B0002B08B1002C08B2000030AD00DC
:100D8E00C830AE004030AF000A128A111C250A127C
:100D9E008A11831203132D08F8002E08F9002F086C
:100DAE00FA000A128A1176240A128A11790883121D
:100DBE000313C401C4077808C301C307C0300A1265
:100DCE008A1196210A128A11831203134408F9011B
:100DDE00F9074308F801F80705300A128A110127AE
:100DEE000A128A11552E552E552EFD2EFD2E0A1243
:100DFE008A110028203084004530FA000408FB00D8
:100E0E000A30FC007A08840083130008FD00FA0AF9
:100E1E007B0884007D088000FB0AFC0B092F103034
:100E2E00F0002730F1007908F301F3077808F2019A
:100E3E00F2070A128A115A230A128A1171088312B2
:100E4E000313A901A9077008A801A8071030F00024
:100E5E002730F1007908F301F3077808F201F20761
:100E6E000A128A11CD220A128A11710883120313F3
:100E7E00A701A7077008A601A607E830F000033007
:100E8E00F1002708F301F3072608F201F2070A1210
:100E9E008A11CD220A128A11710883120313A50139
:100EAE00A5077008A401A407E830F0000330F10094
:100EBE002708F301F3072608F201F2070A128A1136
:100ECE005A230A128A11710883120313A701A70766
:100EDE007008A601A6076430F0000030F100250866
:100EEE00F301F3072408F201F2070A128A11CD2248
:100EFE000A128A11710883120313A301A307700843
:100F0E00A201A2076430F0000030F1002508F301C1
:100F1E00F3072408F201F2070A128A115A230A1261
:100F2E008A11710883120313A501A5077008A40185
:100F3E00A4070A30F0000030F1002308F301F30794
:100F4E002208F201F2070A128A11CD220A128A1120
:100F5E00710883120313A101A1077008A001A00755
:100F6E000A30F0000030F1002308F301F3072208E5
:100F7E00F201F2070A128A115A230A128A11710813
:100F8E0083120313A301A3077008A201A207280866
:100F9E00303E0A128A118A210A128A118312031311
:100FAE002608303E0A128A118A210A128A118312E9
:100FBE0003132408303E0A128A118A210A128A115A
:100FCE002E300A128A118A210A128A1183120313F1
:100FDE002208303E0A128A118A210A128A118312BD
:100FEE0003132008303E0A128A118A210A128A112E
:020FFE000800E9
:02400E00323F3F
:00000001FF
